:060000000A128A11FB2F19
:100F6000BD308316031387004030831203138700BC
:100F70001930F2005A30F100B130F000F00BBE2F02
:100F8000F10BBE2FF20BBE2FC52F83120313870167
:100F90001930F2005A30F100B130F000F00BCE2FD2
:100FA000F10BCE2FF20BCE2FD52F0230831203136D
:100FB00087001930F2005A30F100B130F000F00B28
:100FC000DF2FF10BDF2FF20BDF2FE62F42308312E2
:100FD000031387001930F2005A30F100B130F000ED
:100FE000F00BF02FF10BF02FF20BF02FF72FB42FA7
:100FF0000A128A110028F30183010A128A11B02F04
:00000001FF
